:020000040800F2
:10000000B0AE002029020008213900086D31000837
:100010001D390008C90400086574000800000000CC
:100020000000000000000000000000001150000867
:10003000E5040008000000003139000815500008F0
:10004000430200084302000843020008430200087C
:10005000430200084302000843020008430200086C
:10006000430200084302000843020008430200085C
:10007000430200084302000843020008430200084C
:10008000430200084302000843020008430200083C
:10009000430200084302000843020008430200082C
:1000A000430200084302000843020008430200081C
:1000B000430200084302000843020008430200080C
:1000C00043020008430200084302000843020008FC
:1000D00043020008430200084302000843020008EC
:1000E00043020008430200084302000843020008DC
:1000F00043020008430200084302000843020008CC
:1001000043020008194500084302000843020008A2
:1001100043020008430200084302000843020008AB
:10012000430200084302000843020008CD0400080F
:10013000430200084302000843020008430200088B
:100140004302000843020008430200082539000862
:1001500043020008D90400084302000843020008D3
:10016000430200084302000843020008430200085B
:100170004302000843020008430200080000000098
:10018000430200084302000800F002F800F03CF8C7
:100190000AA090E8000C82448344AAF10107DA45E2
:1001A00001D100F031F8AFF2090EBAE80F0013F0F8
:1001B000010F18BFFB1A43F0010318474C730000EE
:1001C0006C730000103A24BF78C878C1FAD852077F
:1001D00024BF30C830C144BF04680C6070470000C1
:1001E0000023002400250026103A28BF78C1FBD840
:1001F000520728BF30C148BF0B6070471FB507F0DA
:100200004AF91FBD10B510BD00F0A9F81146FFF75F
:10021000F5FF07F029F900F0C7F803B4FFF7F2FF84
:1002200003BC00F0CFF800000948804709480047A8
:10023000FEE7FEE7FEE7FEE7FEE7FEE7FEE7FEE796
:10024000FEE7FEE704480549054A064B70470000F3
:10025000C950000889010008B08E0020B0AE00200F
:10026000B09E0020B09E002053EA020C00F069808E
:100270002DE9F04B4FF00006002B1FBFB3FA83F5BA
:1002800003FA05F424FA05F65E4012BF1643B2FAEB
:1002900082F502FA05F4C5F120051EBF22FA05FC1D
:1002A00044EA0C04203556EA044C4FEA144418BFC3
:1002B000641C4FF000084FF00009904271EB030CF2
:1002C00039D3002919BFB1FA81F701FA07F6B0FA5C
:1002D00080F700FA07F6C7F120071EBF20FA07FCD7
:1002E00046EA0C062037B6FBF4FCA7EB0507103FE7
:1002F00007F01F0BCBF120062CFA06F60CFA0BFBCD
:1003000044BFB3460026202FA4BF5E464FF0000B2B
:100310005BEA060C08BF4FF0010B19EB0B0948EB29
:100320000608ABFB027C06FB02CC0BFB03CCC01B1C
:1003300071EB0C01C1E70B46024641464846BDE859
:10034000F08B13B5084318BF4FF0FF300146AFF3F1
:100350000080BDE81C407047704770477047754685
:1003600000F02CF8AE4605006946534620F0070021
:10037000854618B020B5FFF765FFBDE820404FF077
:1003800000064FF000074FF000084FF0000BAC469E
:10039000ACE8C009ACE8C009ACE8C009ACE8C009E9
:1003A00021F007018D46704710B50446AFF3008079
:1003B0002046BDE81040FFF730BF000000487047FE
:1003C0002801002001491820ABBEFEE726000200EC
:1003D0007047000080B540F60000C4F202008021A2
:1003E00000F08CFBB0FA80F0400980BD704700003F
:1003F000014648F61C50C2F2000002F01BB9000092
:1004000080B548F61C50C2F2000002F025F904380D
:1004100018BF012080BD000080B500F019F8012848
:100420001CBF012080BD48F61C50C2F2000002F043
:1004300079FA002818BF80BD48F61C50C2F20000AF
:100440004FF4006101F09CFF002818BF012080BD1F
:1004500080B582B001208DF80700FFF7BBFF0028B0
:1004600004BF00208DF807009DF8070002B080BD92
:1004700080B513460A46014648F61C50C2F20000F9
:1004800002F03EFC002818BF012080BD40F2901011
:10049000C2F20000012101607047000080B51346E0
:1004A0000A46014648F61C50C2F2000002F0CAFC9F
:1004B000002818BF012080BD48F21040C2F20000A1
:1004C0000121016070470000FEE7000048F2FC6077
:1004D000C2F2000000F048B848F25C70C2F20000BE
:1004E00000F042B870470000EFF3108072B600BF12
:1004F000FEE7000080B548F21443C2F200035A7AC6
:10050000002A1CBF012080BD93F809C08646002048
:1005100003F80C005A7A03EB8202C2F804E05A7A1C
:100520001A44107293F809C00CF101025A720CF1CE
:1005300030020A7042F63A72A1F80120C87080BDFC
:1005400090F83510022909D1052180F8351000688E
:10055000016821F0010101600020704780214165A0
:1005600001207047406D7047F0B581B0044600200F
:10057000009040F26C00C2F200000268D4E91660FC
:1005800048F2B51337680821C1F64E33814039422D
:10059000A2FB03250CD0226813685B0708D51368FB
:1005A00023F004031360B160616D41F001016165E6
:1005B00001218140394208D022685269120604D5CF
:1005C000B160616D41F002016165042181403942F1
:1005D00008D022681268920704D5B160616D41F0BD
:1005E0000401616510218140394217D020680268FA
:1005F000120713D5B16002680168520308D4C90517
:1006000008D4016821F008010160216C21B905E0DE
:1006100008033FD4216C09B120468847E16D2020B2
:1006200000FA01F23A4241D020680368DB063DD56A
:10063000B26094F835300268052B1BD122F0160207
:100640000260426922F080024261226C0AB9A26C07
:100650001AB1026822F0080202603F208840B060B0
:10066000012084F83500216D0020002984F8340031
:1006700052D157E00168520310D4C90512D4016861
:1006800021F010010160012084F83500002084F879
:10069000340007E0A16C0029BED1BFE7080301D4F4
:1006A000616C00E0E16B09B120468847606DC8B31A
:1006B000606DC0072ED0052084F835002068A90A97
:1006C000026822F001020260009A01328A4200921E
:1006D0001AD80268D20717D0009A01328A420092D3
:1006E00012D80268D2070FD0009A01328A420092D3
:1006F0000AD80268D20707D0009A01328A420092D3
:1007000002D80268D207DFD1012084F8350000202A
:1007100084F83400E16C29B1204601B0BDE8F04016
:10072000084700BF01B0F0BD2DE9F041044600F0DC
:10073000F1F9ECB10546022084F83500002021686B
:1007400084F83400086820F0010008602168086817
:10075000C00711D000F0DEF9401B0528F6D90325AB
:1007600020230320636584F83550BDE8F08100BF85
:100770000120BDE8F08100BF086848F23F02CFF2D7
:100780001002D4E9013500EA020C04F10C0898E8E3
:10079000C10143EA0C032B431843D4E9072E30432D
:1007A00038431043626A40EA0E00042A40EA080314
:1007B0001CD1206BD4E90A2E40EA0E0018430860D1
:1007C0004869BEF1000F20F0030040EA020040F04B
:1007D000040C11D0B8F5005F36D0B8F1000F45D148
:1007E000022A46D0012A3BD032B942E00B60486968
:1007F00020F0070040EA020C01F0F8004AF6AB22B4
:100800001038CAF6AA22A0FB02231A0947F20053A5
:10081000C0F600039A5C40F2FF335F284FF03F00C0
:10082000C1F814C021EA030100FA02F088BF0431C4
:10083000C4E916128860002301250020636584F84E
:100840003550BDE8F08100BF032AD5D801254023EB
:100850000120DFE802F0030E030500BF82E700BFBE
:10086000AEF1C070B0FA80F0400904E0032A04D36E
:10087000C2D1CEF300600028BED001254023012064
:10088000636584F83550BDE8F081000070B590F8DC
:1008900034C0BCF1010F46D04FF0010C80F834C0D9
:1008A000D0F858E090F835C0BCF1010F38D14FF0C6
:1008B000020C80F835C04FF0000CC0F854C0D0F8DE
:1008C00000C08468056CC06DDCF80060402C26F424
:1008D0008026CCF80060CCF804300B4604BF1346E9
:1008E0000A463F2101FA00F0CCF80830CCF80C2081
:1008F000CEF80800DCF8000040F01600CCF800004C
:100900002DB1DCF8000040F00800CCF80000DCF865
:10091000000040F00100CCF80000002070BD00BFD6
:10092000002180F83410022070BD0000B0B50446EC
:1009300000F0F0F8054640F20000C2F20000007836
:10094000611C18BF044400BF00F0E4F8401BA04243
:10095000FAD3B0BD2DE9F04F82B000F13E4241F62E
:10096000004502F1FF77C4F20205082243F6004E6B
:100970004FEAB726A84208BF0722C4F2010E072E8D
:1009800038BF4FEAB7220125002600274FF00008A4
:10099000009208E008F101080437B8F1100F06F1E1
:1009A000020600F0A7800C6805FA08F914EA090F9E
:1009B000F0D0D1F804B003220BF0030CACF1010429
:1009C000B240012C6FEA020A10D88268CC6802EAB1
:1009D0000A02B440224382604268CBF3001422EA48
:1009E000090204FA08F42243426005E0BCF1030F57
:1009F00002D14FF0030C20E0C2688C6802EA0A02C0
:100A0000B4402243BCF1020FC26016D16FF0030262
:100A100002EA58020244D2F820C007F01C050F2356
:100A20000C69AB402CEA030304FA05F52B4313626F
:100A3000D1F804B001250BF0030C02680CFA06F3A0
:100A400002EA0A021A431BF4403F0260A2D00022CD
:100A500043F644030192C4F202031A684FF6084CAD
:100A600042F480421A601A68CFF6FF7C02F480429A
:100A70000192019A28F00302724452F80C3007F0F8
:100A80000C050F24AC40A343009C04FA05F52B434E
:100A900042F80C30DEF808204B6842EA090543F6BC
:100AA0000C4CDC0258BF22EA0905CEF80850C4F20B
:100AB000010CDCF800209C0242EA090558BF22EA3A
:100AC0000905CCF80050DEF804209C0342EA090531
:100AD00058BF22EA0905CEF80450DEF80020DB03F7
:100AE00042EA090558BF22EA0905CEF8005001255F
:100AF00050E700BF02B0BDE8F08F00000069084079
:100B000018BF012070470000002A08BF0904816156
:100B10007047000048F6A860C2F200000068704705
:100B200070B5B8B3044690F83D0028B9002084F8A9
:100B30003C00204600F0B0F8242084F83D002068F6
:100B4000016821F001010160016841F40041016088
:100B5000016821F40041016001F00CFA48F2804183
:100B6000C0F21E0140F60013D4F804E088424FF0B2
:100B70000001C0F23D0348F2A16C4FF0000238BF03
:100B800001219842C0F2010C38BF0122E64538BF6E
:100B90000A460AB1012070BD4DF68361C4F21B31D3
:100BA000A0FB01122168950C4B684FF4967623F058
:100BB0003F0343EA9243754344F6D3564B60C1F278
:100BC00062060B6AA5FB0656B50923F03F03E6450E
:100BD00038BF950C6A1C1A430A62CA6948F2A066BB
:100BE0004CF6FF73C0F20106B64522EA03020BD8A9
:100BF00001384FEA4E03B0FBF3F001306FF31F30C2
:100C0000042898BF04201EE0A368013863B11923AB
:100C10000EFB03F3B0FBF3F001306FF31F3078B13C
:100C200000F5804008E000BF0EEB4E03B0FBF3F090
:100C300001306FF31F3028B100F5004003E000BF22
:100C4000012000E001201043C8610868D4E90723AF
:100C500020F0C000104318430860886848F2FF3253
:100C600004F10C0690434CCE18431043A5698860EC
:100C7000C86820F0FF0030432843C860086840F08F
:100C80000100086000202021206484F83D102063CA
:100C900084F83E0070BD0000B0B586B0016845F232
:100CA0000040C4F20000814202D006B0B0BD00BFD7
:100CB000002443F630050194C4F20205296800F5CA
:100CC000D83041F002012960296801F00201019148
:100CD0000199C02101911221CDE90214032104914F
:100CE0000421059101A9FFF735FE0094286940F41D
:100CF00000102861286900F400100090009806B0E8
:100D0000B0BD000040F2000048F6A861C2F2000049
:100D1000C2F2000100780A681044086070470000C1
:100D200080B543F60040C4F20200016841F400714E
:100D30000160016841F480610160016841F48071E3
:100D40000160032000F088F80F2000F005F800F0A3
:100D500027F8002080BD000070B540F20006C2F206
:100D6000000640F26C013278C2F200014FF47A734F
:100D70000968B3FBF2F20446B1FBF2F1084602F057
:100D8000DFF90F2C4FF0010508D838B94FF0FF30CC
:100D900021460022002500F033F87460284670BD1B
:100DA00082B0002043F640010190C4F202014A687B
:100DB00042F480424A604A6802F480420192019AF9
:100DC0000090086840F080500860086800F080508B
:100DD0000090009802B07047002848BF7047C1B229
:100DE00000F01F00012202FA00F04EF20012CEF2D3
:100DF000000242EAD10121F00301086070470000BF
:100E000010B54EF60C5CCEF2000CDCF80030C3F3EB
:100E1000022E8EF00704042C28BF0424BEF1030325
:100E20004FF0FF3E0EFA04F438BF0023A14399406F
:100E30000EFA03F39A43114300F00F0200F16043EE
:100E40000901043A03F564436244002848BF02F1F3
:100E50000C03197010BD00004EF60C51CEF20001CB
:100E60000A684FF6FF031A4060F30A2242F08060DE
:100E700040F0FD7008607047704700000268002075
:100E8000516270472DE9F043D0F80090D9F8240062
:100E9000A1B1D9F82830B1F1010800EB13435DD0BE
:100EA000A8F10100C0B2032808F0030C0ED24FF0E5
:100EB000010E0027BCF1000F33D14FE040EA0240A1
:100EC000C9F828000020BDE8F08300BF08F0FC0E40
:100ED00009F1F404002009F5827500BF54F8107F71
:100EE000064603EB174046F00103DBB246F002076B
:100EF00055F82330FFB255F8277000EB134000EB94
:100F0000174346F00300C0B255F82010301DC7B299
:100F1000774503EB1143E1D106F1050EBCF1000F5B
:100F20001CD009EB8700D0F80401BCF1010F03EBE2
:100F3000104313D05FFA8EF009EB8000D0F8040163
:100F4000BCF1020F03EB104308D00EF10100C0B258
:100F500009EB8000D0F8040103EB104343EA0240A0
:100F600009EB8801C1F804010020BDE8F08300000E
:100F7000D0F8080504F09ABB01EBC102D0F808359F
:100F800000EB8200C26C184604F0F8BA01EBC10213
:100F9000D0F8083500EB8200D0F88C22184604F017
:100FA00049BB0000D0F8080504F082BB10B5044628
:100FB00048B2B0F1FF3F01F00F0000EBC00104EBBD
:100FC000810205DD02F51F71002382F87D3204E005
:100FD000012302F13C0182F83D3094F8BC240870F2
:100FE000012A04BF022010BD2068012284F8BC241D
:100FF00005F0ACFA002084F8BC0410BDB0B542681E
:10100000044601F00F0082423CBF0120B0BD49B24E
:10101000B1F1FF3F0ADD00EBC00104EB810202F5F4
:101020001F71002382F87D3209E000BF00EBC00190
:1010300004EB8102012302F13C0182F83D3094F877
:10104000BC240025012A8D70087004BF0220B0BDA9
:101050002068012284F8BC2405F0DAFD284684F8D3
:10106000BC54B0BD10B5044690F8BC04012804BFC0
:10107000022010BD4BB220680122B3F1FF3F84F87B
:10108000BC2405DD05F096FF002084F8BC0410BDEB
:1010900001F00F0105F0EAFF002084F8BC0410BD48
:1010A00001F00F0101EBC10100EB8100D0F89C02BF
:1010B0007047000070B5064648B2B0F1FF3F01F03E
:1010C0000F0000EBC00107DD06EB810404F51F7182
:1010D000002584F87D5206E006EB810C01240CF11A
:1010E0003C018CF83D404D780870002DCA600B71B2
:1010F00018BF0881022B04BF0020487196F8BC0479
:10110000012804BF022070BD3068012286F8BC248B
:1011100005F0DAF8002086F8BC0470BD80B501F057
:101120000F0C0CEBCC0100EB810ECEF894320023B7
:10113000CEF89C328EF87D320369CEF88C22012BDA
:101140008EF87CC208BFCEF8902200680EF51F71A1
:10115000DAB2BCF1000F03D005F0A4FD002080BD81
:1011600005F0AAFC002080BDB0B50446406801F03F
:101170000F05854284BF0120B0BD48B2B0F1FF3FEA
:101180000ADD01EBC10004EB800000F51F710022B5
:1011900080F87D2209E000BF05EBC50004EB80006C
:1011A000012200F13C0180F83D2094F8BC040122AA
:1011B00001288A700D7004BF0220B0BD206884F839
:1011C000BC2405F04FFD1DB1002084F8BC04B0BD67
:1011D0002068217C04F2C44205F0ECFC002084F875
:1011E000BC04B0BD10B501F00F0C0CEBCC0100EB52
:1011F000810E714601F83CCF8B6100230B620369BD
:1012000001244C70012B0A6108BFCEF85020006801
:10121000DAB2BCF1000F03D005F044FD002010BD90
:1012200005F04AFC002010BD2DE9F04F89B005689B
:101230000646284605F084FF10B109B0BDE8F08FDE
:10124000306805F0ABFF0028F7D0D5F80808C0F3E8
:101250000D213068C6F8FC1405F0A0FF0146306887
:10126000890703D5416901F00201416105F5006775
:1012700005F094FF01463068C906089604953CD5F0
:10128000816921F0100181612C6AC4F34340062872
:1012900004F00F051AD0022829D147F6F07014EA9D
:1012A000000824D005EBC50006EB8009D9F88C12A4
:1012B0004FEA18140498224605F074FFD9F88C02FE
:1012C00000EB1810C9F88C0208E000BF049806F281
:1012D000C441082205F066FFC4F30A1405EBC500FB
:1012E00006EB8000D0F89C122144C0F89C123068B4
:1012F000816941F010018161049D039705F04EFF63
:10130000000340F1EB800898006805F025FF0028F5
:1013100000F0E480064608984FF4306400F2C441BF
:1013200000F527784FF0000B079118E028190221EB
:1013300081605FEA8A6042BF2819202181605FEAEC
:101340008A4042BF28194FF4005181600BF1010B14
:10135000760804F1200408F1240800F0BF80F007AB
:10136000F4D008985FFA8BF90068494605F00EFF43
:101370008246C00762D0281901218160089F386821
:101380002118036C8A683F69012F29D1170735D4CA
:10139000970600F19B8012F0280F4FD143F20B0704
:1013A000C4F65477BB4202D312F400422FD158F84E
:1013B000042C0969BBF1000F6FF3DF41A2EB0101BF
:1013C000C8F8001035D1089BD3F89422002A00F009
:1013D0008380D3F88C020844C3F88C0229E000BF54
:1013E00043F20B07C4F65477FF37BB4216D1100403
:1013F0000DD4900644BF202088601AE043F20B0011
:10140000C4F65470834219D312F4004016D04FF43E
:10141000004088605FEA0A7013D437E0BBF1000F28
:1014200007D10899D1F8941219B90021079A05F04B
:10143000C1FB08984946FFF7A9FD00BF5FEA0A70A3
:1014400024D5281908218160089843F20B0200680E
:10145000C4F65472056C20448168571EBD4205D9FC
:1014600011F400411CBF4FF400418160089800F066
:1014700089FCBD42049D09D908980069012805D15D
:101480000898079A0068012105F094FB5FEACA609A
:1014900042BF2819102181605FEA8A707FF549AF49
:1014A0006869000604D50399486840F48060486084
:1014B00018F81D0C01287FF439AF002008F81D0C26
:1014C0000898494600F048FB30E700BF20208860BC
:1014D0005FEA0A70B5D4D9E70121A7E7DDF820B0AB
:1014E000DBF8000005F05AFE400340F1D580DBF840
:1014F000000005F029FE002800F0CE80824605F5A8
:10150000106002900BF2C4400027019006E000BF7B
:101510005FEA5A0A07F1010700F0BE805FEACA706D
:10152000F6D0DBF80000F9B2079105F01DFE029E2F
:101530000446C00726D0039A07F00F00516B012321
:1015400003FA00F021EA0000506306EB47108360C5
:10155000DBF81000012811D107EBC7000BEB80006E
:10156000D0E912121144C16447B9DBF8540028B91C
:10157000DBF80000019A012105F01CFB0799584691
:10158000FFF7FAFC200742BF06EB471008218160F5
:10159000E00642BF06EB471010218160600642BFA3
:1015A00006EB471040218160A00715D52846394633
:1015B00005F05CFD07EBC7000BEB800010F83F1F48
:1015C000012905D1002101700799584600F0C0FAA1
:1015D00006EB471002218160200699D507EBC70072
:1015E0000BEB8002914659F8541FC84658F8080F73
:1015F00081428DD3DBF8006093465BF8485F0B1A9D
:10160000AB4238BF1D46069606EB4713D3F818C900
:1016100005F1030E1FFA8CF5B5EB9E0F28D303F5E9
:10162000106102F14C050591D9F8001081421FD9D3
:10163000DBF80040089A081AA0422968167C38BFD7
:101640000446DDE90602A3B2009605F0D5FE28683F
:10165000D8F800102044286008190599C8F800003F
:101660008969E21C89B2B1EB920FDDD2D9F8001082
:10167000DDF820B0049D81423FF64AAF069B07F09B
:101680000F00D3F83418012202FA00F021EA00001A
:10169000C3F834083CE700BFDBF8000005F07EFD2E
:1016A000002825D4DBF80000DDF80C8005F076FD7D
:1016B00000053ED4DBF8000005F070FDC00449D5FC
:1016C000D8F80400102120F00100C8F80400DBF86D
:1016D000000005F0CBFCDBF80400002800F0F780E8
:1016E000411E032900F0030C38D20021A2E000BF04
:1016F000DDF80C80D8F8040020F00100C8F80400E0
:101700009BF8F404012807D100208BF8F404584614
:101710000021FFF7B1FB02E0584600F017FBDBF8B1
:101720000000416901F00041416105F037FD00050D
:10173000C0D5D8F80800C00702D0584600F04AFBD0
:10174000DBF80000416901F40061416105F026FD0C
:10175000C004B5D4DBF80000EDE000BF20F0030EBC
:1017600005F536634FF6A0564FF6C0554FF6E054D8
:101770004FF6006000214FF67F37CFF6FF76CFF6A9
:10178000FF75CFF6FF74CFF6FF7000BFA3F5187298
:1017900097609A59043122F400129A5143F8587C08
:1017A00053F8602C8E4522F4001243F8602C53F855
:1017B000602C42F0006243F8602CA3F51072976031
:1017C0005A5922F400125A5143F8387C53F8402CED
:1017D00022F4001243F8402C53F8402C42F00062EF
:1017E00043F8402CA3F5087297601A5922F40012AE
:1017F0001A5143F8187C53F8202C22F4001243F8B5
:10180000202C53F8202C42F0006243F8202CA3F542
:10181000007297601A5822F400121A509F601A68DA
:1018200022F400121A601A6842F000621A6003F192
:101830008003ABD1049DBCF1000F48D005F51060CA
:1018400000EB41124FF67F334F019360C65905F507
:10185000306226F40016C65102EB4116B360D65929
:10186000BCF1010F26F40016D651D65946F0006699
:10187000D6512CD04F1C00EB47157E01AB6085592B
:1018800002EB471725F400158551BB609359BCF155
:10189000020F23F400139351935943F000639351C3
:1018A00015D0023100EB41174FF67F364B01BE6079
:1018B000C75827F40017C75002EB41108660D05874
:1018C00020F40010D050D05840F00060D050D8F82C
:1018D0001C0040F00110C8F81C00DBF8300048B1D3
:1018E000D8F8840040F00B00C8F8840008F14400E8
:1018F00009E000BFD8F8140042F22B010843C8F8F1
:10190000140008F1100001680BF2C44241F00B0111
:101910000160D8F8000020F4FE60C8F80000DBF891
:1019200000009BF8101005F045F9DBF80000416954
:1019300001F48051416105F031FC0146DBF8000003
:1019400089041AD504F002FDDBF8000005F0EAFB7B
:10195000DBF80040CBF80C0000F006FB9BF80C20F5
:101960000146204605F0B8FC584600F0D9F9DBF8EE
:101970000000416901F40051416105F00FFC0007CE
:1019800006D4DBF8000005F009FC00060DD435E0B4
:10199000584600F0DFF9DBF80000416901F008016A
:1019A000416105F0FBFB000628D50499886920F009
:1019B00080008861DBF8040002281FD3012440F274
:1019C000A32504E00134844205F1240516D21BF856
:1019D00005100129F6D104F00F0000EBC0000BEB5D
:1019E00080022006DBF8000002F13C0158BF02F53E
:1019F0001F7105F04FFADBF80400E3E7DBF80000A5
:101A000005F0CCFBC0024FD4DBF8000005F0C6FBAC
:101A1000049D800240F17E80DBF8041002292AD365
:101A200005F5326001390BF52972012305E000BF8D
:101A30002030013902F124021DD007681678012EEA
:101A4000F6D1B7F1FF3FF3DCDBF8FC6407F4803735
:101A500006F00106B742EBD102F8013CAF6947F04E
:101A60008007AF616F693F06E2D4D8F8040040F404
:101A70000070C8F80400DBF80000416901F40011AF
:101A8000416105F08BFB40004AD55846FFF770FADC
:101A9000DBF80000416901F08041416105F07EFB07
:101AA00040077FF5CAAB42E0DBF80400022825D3EB
:101AB00004990BF1640501F512640126012705E084
:101AC00001372034874205F1240517D221682A788E
:101AD000012AF5D1B1F1FF3FF2DC07F00F0000EB76
:101AE000C0000BEB8001DBF800003C3105F8016C15
:101AF00005F0D0F9DBF80400E2E700BFDBF80000F6
:101B0000416901F48011416105F048FB049D8002A8
:101B10003FF582AFDBF8000005F040FB4000B4D495
:101B2000DBF8000005F03AFB40077FF586ABDBF8F9
:101B300000004468610704D55846FFF733FADBF824
:101B4000000041682143416009B0BDE8F08F00000A
:101B5000D0F8080503F01CBED0F8080503F02CBE31
:101B60002DE9F04F8BB0002800F086800446056810
:101B700090F8BD0428B9002084F8BC04204600F089
:101B80008FF8032084F8BD04E86BC0055CBF00201B
:101B90002061206804F088FF206804F11C0A0A9084
:101BA000D4E90C5004F1040E9AE8C0079EE80E58E0
:101BB000CDE9085003A880E8C0030A988DE80058D2
:101BC000CDF81CA004F0D2FB002852D120680021DF
:101BD000002505F03DFB616861B301200023002270
:101BE00003EBC30304EB830787F83C20D3B2013235
:101BF000A7F84430D3B2994287F83D0087F84050A7
:101C0000C7E912557D65EBD800200023002200BFF4
:101C100003EBC30304EB830787F87C220132D3B2C2
:101C2000994287F87D0287F88002C7E9A200C7F8C9
:101C30009402EDD8A06822680A90D4E90C5004F10F
:101C4000140E04F1240AD4E903379EE840589AE8B8
:101C50000007CDE9085002A880E8005810460A9A0B
:101C6000CDE90076CDE90589CDF81CA004F0D2FCC1
:101C700040B1022084F8BD04012528460BB0BDE820
:101C8000F08F00BF0025012084F8385084F8BD048F
:101C9000206804F0AFFC28460BB0BDE8F08F0000D0
:101CA000B0B586B00068B0F1A04F01D006B0B0BDAD
:101CB000002543F630040195C4F20204206801A90E
:101CC00040F001002060206800F0010001900198C0
:101CD0004FF4C05001900220CDE90205032004908A
:101CE0000A2005900020C4F20200FEF733FE60686F
:101CF000042140F08000606000956069002240F49B
:101D000080406061606900F480400090009843204A
:101D1000FFF776F84320FFF75FF806B0B0BD00008C
:101D200010B50446C06828B1022818BFFEF7DCFBD6
:101D3000012100E00021D4F8080503F0C3FDD4F828
:101D40000805BDE8104003F071BD0000D0F808059B
:101D500003F0A0BDD0F8080503F0A6BD10B50446F9
:101D600090F8BC04012804BF022010BD012084F8B3
:101D7000BC0484F83810206805F09CFA002084F830
:101D8000BC0410BDD0F8082500F2C441104603F091
:101D9000AFBD000010B5044690F8BC04012804BF94
:101DA000022010BDA16A20680122012984F8BC2408
:101DB00006D1A169012903D0816B41F4803181638F
:101DC00005F0F0F8206804F005FC002084F8BC045D
:101DD00010BD000010B50446D0F8080503F0DEFD84
:101DE0002068D0F8001E41F00101C0F8001E206AF2
:101DF000002808BF10BD4EF61050CEF2000001685A
:101E000041F00601016010BD2DE9F041002800F00D
:101E10008B8043F60808C4F202080446D8F8F80399
:101E20000D4600F00700884207D288F8F853D8F82A
:101E3000F80300F00700A84276D12068810717D583
:101E4000410705D5D8F8001041F4E051C8F800105A
:101E5000010705D5D8F8001041F46041C8F800101A
:101E6000D8F80010A26821F0F0011143C8F8001062
:101E7000C0073FD1D8F8F80300F00700A84207D9FF
:101E800088F8F853D8F8F80300F00700A8424BD1BF
:101E90002068410707D5D8F80010E26821F4E05126
:101EA0001143C8F80010000708D5D8F800002169D0
:101EB00020F4604040EAC100C8F8000000F06EF86D
:101EC000D8F8001047F2B042C1F30311C0F6000287
:101ED000515C40F26C0220FA01F140F20400C2F2BF
:101EE00000000068C2F200021160FEF735FF00201A
:101EF000BDE8F0816068811E022907D258F8081CED
:101F000089015CBF0120BDE8F08111E0012807D103
:101F100058F8081C89035CBF0120BDE8F08107E088
:101F200058F8081C890703D40120BDE8F08100BFE0
:101F3000D8F8001021F003010843C8F80000FEF7AC
:101F4000E9FD064641F28837D8F80000616800F0E4
:101F50000C00B0EB810F8DD0FEF7DCFD801BB8428A
:101F6000F2D90320BDE8F08140F26C00C2F200001B
:101F70000068704740F26C0043F60801C2F20000AE
:101F8000C4F202010068096847F2C042C1F382212D
:101F9000C0F60002515CC8407047000010B543F61F
:101FA0000404C4F20204606800F00C0142F2004034
:101FB0000829C0F2F40007D0042918BF10BD41F26F
:101FC0000020C0F27A0010BD216801F03F022168B4
:101FD00023684902C3F3881106D4A1FB0001002342
:101FE000FEF742F907E000BF41F20020C0F27A009C
:101FF0004843B0FBF2F021680222C1F3014102EB39
:102000004101B0FBF1F010BD2DE9F04182B0002894
:1020100068D00446007843F60006C007C4F2020602
:102020000BD0B06800F00C00042840F09F803068AE
:10203000800302D56068002854D0207880071AD524
:10204000B06810F00C0F09D0B06800F00C00082840
:1020500040F0A6807068400200F1A28030688007DE
:1020600002D5E06801283DD13068216920F0F800F0
:1020700040EAC10030602078000737D4207840075C
:102080004CD4A56955B3B06800F00C00082840F0A6
:10209000BB80012D26D07068E16900F480028A427D
:1020A00020D1216A00F03F028A421BD147F6C0715D
:1020B000626A0140B1EB821F14D1A16A4FF6FF732F
:1020C000C903994300F44032A1F580318A4209D115
:1020D000E16A00F07060B0EB016F03D1002002B044
:1020E000BDE8F081012002B0BDE8F0816069002800
:1020F00040F20000C4F2472076D00121C0F8801ED3
:10210000FEF708FD054600BF706F8007B6D4FEF7E6
:1021100001FD401B0228F7D9DDE000BF306C10F054
:1021200080580AD100200190306C40F0805030641B
:10213000306C00F080500190019847F20007C4F223
:1021400000073868C00541D4386840F480703860B2
:10215000FEF7E0FC054600BF3868C00536D4FEF740
:10216000D9FC401B0228F7D9B5E000BFB06800F0E9
:102170000C00082803D1706840023FF558AF606832
:10218000B0F5803F07D0B0F5A02F40F08D803068CB
:1021900040F480203060306840F4803030608DE062
:1021A000E068002852D00020C4F2472001210160DD
:1021B000FEF7B0FC054600BF306880073FF554AF1E
:1021C000FEF7A8FC401B0228F6D984E0A06801288D
:1021D00005D005284ED1306F40F004003067306FD5
:1021E00040F0010030674FE00021C0F8801EFEF78C
:1021F00091FC0546706F80077FF540AFFEF78AFCC3
:10220000401B0228F6D966E00027C4F247270020C9
:102210003866FEF77FFC022D05460BD13068800141
:102220005ED5FEF777FC401B02284FF00300F5D97E
:1022300055E700BF306880017FF550AFFEF76AFCBC
:10224000401B02284FF00300F4D948E70020C4F2F5
:10225000472000210160FEF75DFC054630688007DD
:102260007FF509AFFEF756FC401B02284FF0030034
:10227000F4D934E7316F002821F001013167316F63
:1022800021F0040131674DD0FEF744FC054641F2D0
:10229000883700BF306F800756D4FEF73BFC401BE9
:1022A000B842F7D917E000BF3168002821F4803127
:1022B0003160316821F4802131604FD0FEF72AFC73
:1022C000054600BF306880033FF5B7AEFEF722FC3D
:1022D000401B6428F6D9032002B0BDE8F08100BF9E
:1022E00004F11C052FCD084340EA8210D9034FF6B4
:1022F000FF729143A1F5803140EA056008437060A8
:1023000001203866FEF706FC044600BF30688001F5
:102310003FF5E4AEFEF7FEFB001B02284FF0030082
:10232000F4D9DCE6FEF7F6FB054641F2883700BF3C
:10233000306F800708D5FEF7EDFB401BB8424FF029
:102340000300F5D9CBE600BFB8F1000F7FF499AEDA
:10235000306C20F08050306493E600BFFEF7DAFB6B
:10236000054600BF306880037FF567AEFEF7D2FBFD
:10237000401B64284FF00300F4D9B0E6FEF736B8EE
:102380002DE9F04186B00446032084F83400606CE7
:102390008846032822D14FF08050A16B40F2FF56AF
:1023A0000843A063A06BC0F2400600283ED020681E
:1023B0000125866384F834504FF4007102F02CF943
:1023C00028B1216801258E63A16B0843A063012118
:1023D000284684F8341006B0BDE8F081B8F1000F4B
:1023E00036D0B8F5805FD6D0B8F5006F46D1002161
:1023F000206805910491002102F08AF8800141D4FF
:1024000004A9204602F092FC0028C6D19DF81600CF
:10241000400730D5216D2068090402F0A9F8002892
:10242000BBD12068022102F003F9B6E794E80F005F
:10243000D4E90557CDE90085029702F073F82068CA
:1024400000254FF4007102F0E7F80028B9D1BEE78B
:102450000021206805910491002102F059F88001C3
:1024600010D404A9204602F061FC002895D19DF803
:102470001600C0070AD14FF080608EE74FF0006071
:102480008BE700BF4FF4006087E700BF216D206835
:10249000090402F06DF800287FF47FAF2068002166
:1024A00002F0C6F879E700007047000080B5D0E977
:1024B000193ED0F844C09A0F0A70C3F383624A7081
:1024C000C3F301628A701A0CCA701A0A0A714FEAC1
:1024D0001E524B71CA80CEF303420A72CEF3C03251
:1024E0004A72CEF380328A72CEF34032CA72CEF391
:1024F00000320A730022BCF1010F4A7336D0BCF1DE
:10250000000F40F0878040F6FC72C36E02EA8E0234
:1025100042EA93720A61C26EC2F3C2630B75C2F3E0
:1025200002634B75C2F342538B75C2F38243CB7582
:10253000C2F3C2330B76D1F810C00B7E0CF1010C44
:1025400003F0070302330CFA03FCC0F854C00B7A03
:1025500003F00F0E012303FA0EF383655B0A03FBFE
:102560000CF3C3654FF4007312E000BFB0F86E20A7
:102570000EF03F0342EA03420A610A694FF48063A6
:1025800003EB82224FF40073C0E91523C265C26ECB
:102590000366C2F380334B76C2F3C61302F07F02A8
:1025A0008B76CA76006FC20F0A77C0F341724A7702
:1025B000C0F382628A77C0F38352CA77C0F3405275
:1025C00081F820200022C0F3004381F8212081F807
:1025D0002230C0F3C03381F82330C0F3803381F858
:1025E0002430C0F3403381F82530C0F3003381F844
:1025F0002630C0F3812381F82730C0F30123C0B215
:10260000400881F8283081F82900012081F82A004B
:10261000104680BD016840F2FF52C0F240028A635A
:10262000816B012241F08051816380F83420104693
:1026300080BD000080B500F1440E9EE80C5081E89A
:102640000C10426DC1E903E2D0E91623C1E905236C
:10265000026E0020CA6180BD10B5016D044600689D
:10266000090402F043F928B1A16B0843A0630020DC
:1026700010BD00BF2068002101F04AFFC0F34320D5
:1026800010BD0000F0B581B004460068256B416BB9
:1026900005F0080609042BD556B3E56A2DB3A66AE2
:1026A00001F05CFF3060206801F058FF7060206826
:1026B00001F054FFB060206801F050FFF060206826
:1026C00001F04CFF3061206801F048FF7061206824
:1026D00001F044FFB061206801F040FFF06106F1B5
:1026E0002000A5F12001C4E90A0101B0F0BD00BF3E
:1026F000416BC90540D4416B490465D5002E63D0B8
:10270000666A002EF1D0276A6D4639680091294625
:1027100001F028FF796820680091294601F022FF26
:10272000B96820680091294601F01CFFF96820680B
:102730000091294601F016FF396920680091294669
:1027400001F010FF796920680091294601F00AFF25
:10275000B96920680091294601F004FFF86929460B
:1027600000902068203701F0FDFEA6F12000C4E9AA
:10277000087001B0F0BD00BF4FF480718163C16B80
:102780004CF23A329143C163C16A002E21F001013B
:10279000C16259D12906A8D5A90608D502F018F9B1
:1027A00028B1A16B0843A0632046FFF77DFEA80770
:1027B0009BD12068C16A21F00801C1620121204635
:1027C00084F834105EE000BF416B40F23A221142BF
:1027D0003FF48BAF416B89075AD4416B09075ED434
:1027E000416B890662D4416BC90666D4416B890589
:1027F00003D5A16B41F00801A16340F23A718163F6
:10280000C16B40F23A329143C16302F0E1F8A16B2F
:10281000002E40EA0100A06358D128067FF565AF7D
:1028200015F0300F5ED0E06B44F6C141C0F60001F8
:102830000165FDF785FE00283FF457AFE06B01B05E
:10284000BDE8F04002F03CBA15F0220F08D002F0CB
:10285000BFF828B1A16B0843A0632046FFF724FE10
:10286000206840F23A518163012084F8340000204E
:10287000A9072063204605D001B0BDE8F04000F074
:10288000DDBA00BF01B0BDE8F04000F0D9BA00BF2A
:10289000A16B41F00201A163416B0907A0D5A16BB7
:1028A00041F00801A163416B89069CD5A16B41F001
:1028B0002001A163416BC90698D5A16B41F01001BD
:1028C000A163416B890594D497E700BF01200021E3
:1028D00084F834002046216301B0BDE8F040FFF7E2
:1028E000E3BD00BFA80711D0206C44F64541C0F6F7
:1028F00000010165FDF724FE00283FF4F6AE206CD0
:1029000001B0BDE8F04002F09DB900BF00210120F8
:10291000A16384F834002046216301B0BDE8F04093
:10292000FFF72CBD10B5D8B1044690F8340020B99B
:1029300000202077204600F023F9032084F834009B
:10294000204600F00FF800284FF0010018BF10BD1E
:102950000021A163216384F83400002010BD00BF72
:10296000012010BDF0B58FB0044600687621002626
:1029700002910021002200230096019601F0D2FD71
:102980004FF0010510B128460FB0F0BD48F2A00786
:10299000C4F225273E60206801F0DAFD02203D6088
:1029A000FDF7C4FF0496206801F04EFE40B10125FA
:1029B00084F83450A16B0843A06328460FB0F0BDE3
:1029C000206801F071FE58B120680021A16401F077
:1029D0003BFE0028EBD1A06C012803D00AE000BF29
:1029E0000120A0642068002101F0C2FD10B14FF069
:1029F0008050DCE704984FF6FE76B0421ED80025E2
:102A0000CCF210152068002101F0B2FD0028CED1D3
:102A10002068294601F0B8FD0028E8D1206800218F
:102A200001F076FD0499013104910499B14202D874
:102A3000B0F1FF3FE6DCC0F3807000E000200499B5
:102A40004FF6FF72914203D34FF08070AFE700BFA3
:102A5000606420680125ADF80E5001F055FD88B185
:102A6000606C032812D12068042101F051FD000D93
:102A7000E06404A92046FFF719FD002854D04FF068
:102A8000805095E74FF0806092E700BF206801F02A
:102A900083FE00287FF48CAF2068002101F038FD10
:102AA000216860670846042101F032FD2168A067B3
:102AB0000846082101F02CFD2168E06708460C213A
:102AC00001F026FD616CC4F880000329CBD020689A
:102AD0000DF10E0101F016FF00287FF469AF606C64
:102AE0000328C0D0BDF80E1020682165090401F04C
:102AF000A1FE00287FF45CAF2068002101F008FDF2
:102B0000216860660846042101F002FD2168A06684
:102B10000846082101F0FCFC2168E06608460C210B
:102B200001F0F6FC20679EE7216D20680A0400236F
:102B300001F026FE00287FF43BAF94E88F00D4E933
:102B40000565CDE90076029501F0ECFC20684FF4B4
:102B5000007101F061FD78B1216840F2FF52C0F2CE
:102B600040028A63A16B01250843A06384F83450B6
:102B700028460FB0F0BD00BF002528460FB0F0BDBD
:102B80002DE9F04F85B040F600050446C4F2020579
:102B90000068A5F55C41884202D005B0BDE8F08F21
:102BA0004FF0000B43F63000CDF800B0C4F2020045
:102BB00041696E4641F40061416141694FF0020A8A
:102BC00001F4006100910099CDF800B001684FF068
:102BD000010941F00401016001684FF0030801F0B0
:102BE000040100910099CDF800B001680C2741F074
:102BF000080101600068314600F00800009000986C
:102C00004FF4706000902846CDF804A0CDF80890ED
:102C1000CDF80C800497FDF79DFE4FF480508DE8B1
:102C2000010C28463146CDE90387FDF793FE0420C9
:102C3000CDE9000A049746F2584705F58060314611
:102C4000CDE90298C4F20207FDF784FE48F2FC6564
:102C5000C2F200054FF480624FF4804020212A61C7
:102C60004FF48052C5E90520E961042005F12401F3
:102C70004FF000664FF400094FF4001A81E8010795
:102C80002846C5E90076C5E902BBC5F820B0FDF7C6
:102C90004BFD002818BFFDF727FC2564AC6348F204
:102CA0005C7507F14800C2F20005C5E900064FF463
:102CB000806028614FF4805068614FF4804040216B
:102CC000A8612020C5E9021BC5E9070B042005F116
:102CD000240181E801072846FDF726FD002818BFDA
:102CE000FDF702FC312001210022E563AC63FEF711
:102CF00087F83120FEF770F805B0BDE8F08F0000CE
:102D0000F0B587B00446A9B194F83400012819D170
:102D10004FF0000CC4F838C0E06D1E461344154651
:102D2000834213D9A06B40F00070A063012007B06C
:102D3000F0BD00BFA06B40F00060A063012007B0B1
:102D4000F0BD00BF022007B0F0BD00BF032084F833
:102D500034002368206CC3F82CC0DF6B0A4640F2B5
:102D60002A313943D96344F60141C0F60001C163F9
:102D700044F68931C0F60001C0E9131C0168C0F8AF
:102D800008C00F6827F0C0070F60770203F18001C9
:102D9000BB08FDF77BFD98B12068C16B21F49571EC
:102DA000C16340F2FF51C0F240018163A06B40F06B
:102DB0008040A063012084F8340007B0F0BD00BF5C
:102DC00048F28C50C4F2252001210160606C01287A
:102DD0004FF0FF3018BF6D02CDE90107902003903E
:102DE00002200490002005902068069101A901F0BE
:102DF00077FB022E06D3822020632068294601F04B
:102E0000A7FC05E0812020632068294601F0ACFC86
:102E1000014600284FF000000DD0226840F2FF5319
:102E2000C0F240039363A26B1143A163012184F8B4
:102E300034102063012007B0F0BD0000FDF726BB71
:102E4000FDF73ABBF0B587B00446A9B194F8340059
:102E5000012819D14FF0000EC4F838E0E06D1E468D
:102E60001344834214D9A06B012740F00070A06383
:102E7000384607B0F0BD00BFA06B012740F00060EE
:102E8000A063384607B0F0BD0227384607B0F0BD52
:102E9000032084F834002068E36BD4F844C0C0F801
:102EA0002CE0C76B0D4640F21A213943C16344F64A
:102EB000B141C0F60001D96344F68931C0F6000182
:102EC000BCF1010FD96418BF5202022EC3F850E0C2
:102ED00010D3A0212163114601F08AFD88B1216839
:102EE00040F2FF52C0F240028A63A16B01270843FF
:102EF0002CE000BF90212163114601F085FD0028E0
:102F0000EDD148F28C50C4F2252001270760E06B18
:102F100040220368216882601A68760267F387128C
:102F20001A6001F18002B3082946FDF7AFFCA8B191
:102F3000206840F21A22C16B9143C16340F2FF51F5
:102F4000C0F240018163A06B40F08040A06300208C
:102F500084F834702063384607B0F0BD4FF0FF307E
:102F6000CDE90106902003900020CDE904002068FF
:102F700001A9069701F0B4FA0027384607B0F0BD62
:102F800070B538B10446406A30B10020206104F1C8
:102F9000140007E0012070BD6068B0F5827F03D0A7
:102FA00004F11C00002101600026A66294F8510083
:102FB00020B9204684F8506000F03CF8022084F8E4
:102FC000510094E80F0001F48271056802F4044294
:102FD00025F040050560114403F4006223691144A3
:102FE00003F002026369114403F00102A369E56979
:102FF000114403F40072114405F03802256A1144AB
:1030000005F08002A56A114305F4005211430160E6
:10301000626A042101EA134102F010021144416086
:10302000C16921F40061C1610120666584F8510025
:10303000304670BD80B586B0006843F60002C4F229
:10304000000200219042CDE90411CDE90211019165
:103050002ED043F60041C4F20001884244D043F22E
:103060000001C4F20101884268D1002043F630011A
:103070000090C4F202014A6942F480524A614A69EE
:1030800002F480520092009A0090086840F001001B
:1030900008600868052100F0010000900098E02019
:1030A000019040F20040C4F20200A0F580603BE0D5
:1030B00043F630000091C4F20200026942F48042FB
:1030C0000261026902F480420092009A0091016854
:1030D00041F0020101600068052100F0020000904B
:1030E00000984FF460401AE0002043F63001009051
:1030F000C4F202010A6942F400420A610A6902F458
:1031000000420092009A0090086840F002000860B7
:103110000868062100F00200009000983820019015
:1031200040F20040C4F20200022202920022039206
:103130000322CDE9042101A9FDF70CFC06B080BDF6
:10314000411E0020B0EB116F1CBF012070474EF2F2
:103150001002CEF2000251604EF62351CEF2000171
:10316000F0230B700721906011607047FEE70000AC
:1031700070B50446D0F8D40204EB8000D0F8C052F9
:10318000002D08BF70BD48F2180028440179D9B15C
:1031900040F20806C2F200063178204602F0DAFB5F
:1031A000687A02280ED13178204602F0D3FB40F233
:1031B0000900C2F2000001782046BDE8704002F02C
:1031C000C9BB00BF70BD00BF00680028E0D0687AAE
:1031D0000028DDD140F20900C2F20000017820464B
:1031E00002F0B8FBD4E70000B0B50446D0F8D40232
:1031F00004EB8000D0F8C052002D3FD0687A02283E
:1032000012D140F20800C2F200000178204602F01C
:10321000A1FB40F20900C2F2000001782046BDE89F
:10322000B04002F097BB00BF49B2B1F1FF3FC8BF49
:10323000B0BD012822D048F230002A1845F255309E
:10324000C5F242301060012040F208011073C2F252
:10325000000100200978287220460D2302F0A8FB07
:1032600040F20900C2F20000017848F210002A186A
:1032700020461F23BDE8B04002F0C6BAB0BD000032
:10328000B0B50446D0F8D40204EB8000D0F8C052A8
:10329000ADB3287AC11E022922D248F230002A1882
:1032A00045F25530C5F2423010600020107340F2F4
:1032B0000801C2F2000100200978287220460D237F
:1032C00002F076FB40F20900C2F20000017848F2F9
:1032D00010002A1820461F23BDE8B04002F094BA1F
:1032E00002280CD148F21D002844017848F21F0042
:1032F0002A18204600F04AFBB0F1FF3F00DDB0BDC8
:10330000D4F8D40204EB8000D0F8C052002D08BFDE
:10331000B0BD48F230002A1845F25530C5F24230AF
:10332000106001201073C2E7F0B581B00446D0F8F8
:10333000D40204EB8000D0F8C052002D5AD0287A75
:1033400048F21001012805EB010749D0002851D1AE
:10335000D7E9010140F20906C7E90901C2F20006F6
:103360003178204602F0C6F91F280ED1386845F2A0
:103370005531C4F24231884207D1797B012904D802
:10338000B87B113810F1110F70D8797B20460522D7
:10339000202301F085F8D4F8D40204EB8000D0F8A3
:1033A000C072022068722FB348F2180038440179C5
:1033B00000294FD040F20805C2F2000529782046C6
:1033C00002F0C8FA787A022814D12978204602F04F
:1033D000C1FA3178204601B0BDE8F04002F0BABA37
:1033E000797B48F21F002A18204600F0CFFAB0F18E
:1033F000FF3F01DD01B0F0BDD4F8D40204EB800042
:10340000D0F8C052002DF5D048F230002A1845F20D
:103410005530C4F2423000F180501060012040F27B
:1034200008011073C2F200010020097828722046BA
:103430000D2302F0BDFA40F20900C2F2000001784B
:1034400048F210002A1820461F2301B0BDE8F040C2
:1034500002F0DAB900680028ACD0787A0028A9D147
:103460003178204602F076FAA4E700BF48F21F0048
:103470002A18204600F08AFA297AB0F1FF3F0DDDC4
:10348000481E0328B6D3EA68A2B105F11001204610
:1034900001B0BDE8F04000F0A9B800BF2046052902
:1034A00002D1012108E000BF01B0BDE8F040FFF704
:1034B0005FBE00BF2046002101B0BDE8F04000F033
:1034C00067B80000D0F8D41200EB8100D0F8C00239
:1034D00000281CBF002101727047000070B504462F
:1034E000D0F8D40204EB8000D0F8C052002D08BF01
:1034F00070BD48F26001294400222A810A80D0F878
:10350000C4028A7003680020984740F20906C2F29C
:1035100000063178204602F0DBF840F20800C2F2E3
:1035200000000178204602F0D3F8317848F210000C
:103530002A1820461F23BDE8704002F065B900003C
:1035400070B50446D0F8D40204EB8000D0F8C05225
:10355000002D08BF70BD40F20801C2F200014FF417
:10356000807009782881204601F0E4FF40F20906C6
:10357000C2F200063178204601F0DCFF317848F2D3
:1035800010002A1820461F23BDE8704002F03CB905
:10359000B0B50446D0F8D40204EB8000D0F8C05295
:1035A000002D08BFB0BD48F230002A1845F2553052
:1035B000C5F24230117340F208011060C2F20001FE
:1035C00000200978287220460D2302F0F1F940F21C
:1035D0000900C2F20000017848F210002A182046C3
:1035E0001F23BDE8B04002F00FB9000010B5D0F8BD
:1035F000D43200EB8303D3F8C0E2BEF1000F08BF62
:1036000010BD8C4648F2180171440B680C6A934255
:1036100028BF1346A21A0A62002281F8242040F231
:103620000801C2F200010424097862468EF80840BD
:10363000BDE8104002F0BCB980B582B00020019016
:1036400043F63000C4F202000168002241F4800118
:1036500001600068022100F48000019001983B2085
:10366000FDF7CEFB3B20FDF7B7FB452003210022F1
:10367000FDF7C6FB452002B0BDE88040FDF7ACBBBE
:1036800010B540F28814C2F2000447F2C840611C31
:10369000C0F60000FCF72EFF207010BDF0B587B01B
:1036A000002643F6300006960196C4F20200016837
:1036B00041F2000441F0800101600168C4F202049B
:1036C00001F080010191019901960168002241F009
:1036D0000101016001684FF4404501F001010191D1
:1036E00001990196016841F010010160016801F043
:1036F0001001019101990196016841F002010160F8
:10370000016801F00201019101990196016841F0FF
:1037100004010160016801F0040101910199019621
:10372000016841F00801016000684FF4404100F079
:103730000800019001982046FDF7E6F9029502ADD8
:10374000012720462946CDE903760596FDF702F9C3
:10375000802002A9C1C1A4F500602946FDF7FAF84E
:1037600007B0F0BD80B548F2BC7045F20041C2F22E
:103770000000C4F2000148F2A06200234FF4804C24
:10378000C0F2010280E80E00C0E9033CC0E9053345
:10379000C0E90733FDF7C4F9002808BF80BDBDE8C4
:1037A0008040FCF7A1BE000048F61C5042F60041E4
:1037B000C2F20000C4F2010100224FF40063C0E92C
:1037C0000012C0E90222C0E90432826170470000A1
:1037D00080B548F6A05043F20001C2F20000C4F2E6
:1037E00001014FF4827200234FF4007C80E80E0048
:1037F0000A21C0E90333C0E9053CC361C0E90833CD
:10380000C0E90A31FFF7BCFB002808BF80BDBDE856
:103810008040FCF769BE000080B548F6F85043F6DA
:103820000001C2F20000C4F200014FF482720023D2
:103830004FF4007C80E80E000A21C0E90333C0E9A0
:10384000053CC361C0E90833C0E90A31FFF798FBC2
:10385000002808BF80BDBDE88040FCF745BE0000E1
:1038600080B548F6506043F60041C2F20000C4F251
:1038700000014FF4827200234FF4007C80E80E00B8
:103880000A21C0E90333C0E9053CC361C0E908333C
:10389000C0E90A31FFF774FB002808BF80BDBDE80E
:1038A0008040FCF721BE000080B548F2204040F285
:1038B0000C01C2F20000C2F20001002201F024FE5D
:1038C000002818BFFCF710FE48F2204040F28801A3
:1038D000C2F20000C2F2000102F004FA002818BF90
:1038E000FCF702FE48F2204040F2EC01C2F2000078
:1038F000C2F2000102F05EF9002818BFFCF7F4FDE7
:1039000048F22040C2F2000002F016FA002808BF78
:1039100080BDBDE88040FCF7E7BD0000FEE7000089
:10392000FEE7000048F61000C2F20000FDF77CBC84
:103930007047000080B5D0F8D41200EB8100D0F8B9
:10394000C012E1B148F2610001EB000CDCF80700A5
:103950001A44824216D99CF8000048F2400E01EB4E
:10396000C001052201EB0E0301F80E2021210130D8
:103970009980C1B2043918BF01468CF80010FF20AD
:1039800040B280BD002040B280BD00002DE9F0476C
:1039900082B00446D0F8D40204EB8000D0F8C072A4
:1039A000002F00F0A1840E461178154648F2180247
:1039B0009D2907EB020A00F37B805A2900F26482FA
:1039C000DFE811F05C0062026202A00062026202A3
:1039D00062026202620262026202620262026202C7
:1039E0006202620262026202D60062026202620245
:1039F00062026202620262020E013201620262022D
:103A000046016202620262026202520162027C01AB
:103A100062026202A6016202DA01620262026202CC
:103A20006202E601620262026202620262026202F3
:103A30006202620262026202620262026202620266
:103A40006202620262026202620262026202620256
:103A50006202620262026202620262026202620246
:103A60006202620262026202620262026202620236
:103A70006202620262026202FE0100BFDAF8001016
:103A8000002900F01B829AF8490048F2400207EB37
:103A9000C00105278B188F54202101309980C1B2B5
:103AA000043918BF01468AF84910FF2069E300BFB6
:103AB0009E2900F0A981A82900F0D881AA2940F008
:103AC000E381397A002940F05B81DAF8001000299F
:103AD00000F02D829AF90410B1F1FF3F40F32782E4
:103AE000D0F8C402816830468847D4F8D412002840
:103AF00000F0728304EB8100D0F8C002002840F08F
:103B0000AC82BCE2DAF80000002800F0108200204D
:103B1000C7F8150087F82100C7F81D00C7F819007D
:103B2000C7F811009AF848009AF8492070213974B2
:103B300090424FF00C01F9750FD007EBC00148F22D
:103B400040028B18895C01309A88B974C1B204397B
:103B5000BA8318BF01468AF848101220F860287905
:103B6000122898BFF860002040B202B0BDE8F0878C
:103B7000DAF80010002900F0DA816978C90740F00E
:103B8000E181D0F8C40206EBC602C0692D7900EBD2
:103B9000820319790531A94238BF0D46002DFD6019
:103BA00000F0D38215F0030CA5F1010600F0CA82E3
:103BB000995DBC192174BCF1010F314600F0C3823C
:103BC000A91E13F801E07C18BCF1020F84F810E084
:103BD00000F0B982E91E5B5C7D182B74B3E200BF74
:103BE0002B79172B28BF1723002BFB6000F0AD8229
:103BF00040F243005A1E13F00306C2F2000000F028
:103C0000CF81815CBD182974012E114600F0C98155
:103C1000991E455C7C18022E257400F0C281D91EC5
:103C2000435C7E183374BCE19AF84A102879012964
:103C300000F0030008BF022800F0948101284FF033
:103C4000000118BF032840F0A5818AF84A1005E05A
:103C50002879002818BF01208AF84A000020F8605F
:103C600040B202B0BDE8F087D0F8C40269464368AC
:103C70000DF106023046984720B99AF84A0002280A
:103C800040F0C281D4F8D40204EB8000D0F8C00226
:103C9000002800F0298348F26101425C48F24007A5
:103CA00000EBC2030225DE19DD553A230132B38051
:103CB000D3B2043B18BF1346435415E3D0F8C402F3
:103CC0000AF1500543680AF14C083046294642463D
:103CD0009847002840F0A9809AF84A00022800F08E
:103CE000A48028680138010E3974010C7974010A26
:103CF000B974B8F80010F87409BA090C0020F982F8
:103D00000821B882F96040B202B0BDE8F08700BF78
:103D1000397A002940F0AD809AF90410002940F169
:103D200006819AF84A10022900F0F081D0F8C40206
:103D3000816830468847002877D1D5F8020031469F
:103D400002BACAF85420B5F8070043BA2046CAF8A8
:103D50005830FFF7EFFD002800F1C682DAF858006E
:103D6000BAF84C10DAF800204843824240F0A882AA
:103D7000022038727DE000BF397A002900F0B88057
:103D80002046314602B0BDE8F04700F01BBB00BF43
:103D90006878800700F1E680DAF85810DAE9142034
:103DA000084490427FF65AAF9AF8490048F2400220
:103DB00007EBC00105278B188F542121DCE000BFE1
:103DC0002B7A1B2B28BF1B23002BFB6000F0BD812F
:103DD00040F228005A1E13F00306C2F2000000F061
:103DE000F980815CBD182974012E114600F0F38022
:103DF000991E455C7C18022E257400F0EC80D91EBB
:103E0000435C7E183374E6E0D0F8C4020AF150092E
:103E100043680AF14C08304649464246984720B963
:103E20009AF84A00022840F03181D4F8D40204EB19
:103E30008000D0F8C002002800F0568248F26101EC
:103E4000425C48F2400700EBC2030225DE19DD5553
:103E50003A230132B380D3B2043B18BF1346435414
:103E6000FF2040B202B0BDE8F08700BF397A0029D8
:103E700058D04FF4004220463146FA6002B0BDE807
:103E8000F04700F037BA00BF9AF8490048F2400204
:103E900007EBC00105268B188E5420210130998034
:103EA000C1B2043918BF014602208AF8491078725D
:103EB000FF2040B202B0BDE8F08700BF9AF84A1078
:103EC000022940F0BB809AF8490048F2400207EB13
:103ED000C00102268B188E543A2101309980C1B25C
:103EE000043918BF014605208AF84910C8E000BF10
:103EF000DAF80010D9B19AF90410B1F1FF3F16DDDC
:103F0000D0F8C402816830468847D4F8D41200281B
:103F100000F0808104EB8100D0F8C00200288DD130
:103F2000E2E100BF9AF90410002900F1EB809AF851
:103F3000490048F2400207EBC00105278B188F5457
:103F4000202119E0A878802800F0EC8050B90620E4
:103F5000F86040F25A00C2F2000081880068B9821D
:103F6000E9E000BF9AF8490048F2400207EBC001BF
:103F700005278B188F54242101309980C1B2043950
:103F800018BF01468AF84910FF2040B202B0BDE8D0
:103F9000F08700BF02287FF461AE022155E600BF22
:103FA0001946032AC0F0D180821E0023501846789B
:103FB0007D18EE73565C0433AE7310F8016C043F49
:103FC0006E7310F8020C043A287399424FF0000007
:103FD000ECD1D6E01946032AC0F0B780821E002338
:103FE000501846787D18EE73565C0433AE7310F8A3
:103FF000016C043F6E7310F8020C043A2873994266
:104000004FF00000ECD1BCE04FF000603861009848
:104010000138010E3975010C7975010AB975BDF8C1
:104020000610F8750220388308BA000C78830C203B
:10403000F860002040B202B0BDE8F087D0F8C402BA
:1040400081683046884700283FF408AED4F8D4028F
:1040500004EB8000D0F8C00288B148F26101425CF4
:1040600048F2400600EBC20302249D199C553A23F6
:104070000132AB80D3B2043B18BF13464354052032
:104080003872FF2040B202B0BDE8F087D5F80A00D0
:1040900000BAF860E8B1002100230022FE1842F0C7
:1040A0000103DBB29842317413D9FE1842F00203C7
:1040B000DBB2984231740CD9FE1842F00303DBB234
:1040C0009842317405D90432FE18D3B29842317443
:1040D000E4D8D9F800000138010E3975010C797562
:1040E000010AB975B8F80010F87509BA0020090C72
:1040F00038837983D5F80A1009BAF96040B202B062
:10410000BDE8F0879AF84A1002293FD19AF8490091
:1041100048F2400207EBC00102278B188F543A2166
:104120002AE700BF0820F86040F26000C2F20000F9
:104130004168006879613861002040B202B0BDE892
:10414000F08700BF2946032E04D2002040B202B0FF
:10415000BDE8F08792001044821E00235018467874
:104160007D18EE73565C0433AE7310F8016C043F97
:104170006E7310F8020C043A287399424FF0000055
:10418000ECD140B202B0BDE8F08700BFD0F8C40265
:1041900081683046884700287FF447AED5F8020092
:1041A000314602BACAF85420D5F8060003BA2046B0
:1041B000CAF85830FFF7BEFB002800F19580DAF806
:1041C0005800BAF84C10DAF800204843824277D100
:1041D000022038724DE600BF04EB8100D0F8C40223
:1041E000C1683046884788B3D4F8D40204EB800015
:1041F000D0F8C00200283FF442AF48F26101425CAF
:1042000048F2400600EBC20302249D199C55272367
:104210002EE700BF04EB8100D0F8C402C16830462D
:104220008847E8B1D4F8D40204EB8000D0F8C0028B
:10423000002859D048F26101425C48F2400700EB87
:10424000C2030225DE19DD55272302E6D5F8020058
:10425000314602BACAF85420D5F8060003BA08E07D
:10426000D5F80200314602BACAF85420B5F8070062
:1042700043BA2046CAF85830FFF75CFB002833D415
:10428000DAF85800BAF84C10DAF8002000FB01F315
:104290009A4215D10120B3F5004F28BF4FF40043D7
:1042A000387240F20900C2F20000017807F11002F2
:1042B000204601F0A9FA002040B202B0BDE8F08724
:1042C000D4F8D40204EB8000D0F8C00260B148F208
:1042D0006101425C48F2400700EBC2030525DE198C
:1042E000DD552023B5E500BFFF2040B202B0BDE898
:1042F000F08700002DE9F04381B00446D0F8D402E5
:1043000004EB8000D0F8C092B9F1000F55D048F20C
:10431000380209EB0206B36BB78DD0F8C40203FB79
:1043200007F5726BB5F5004F28BF4FF40045D0F884
:1043300010C0B5FBF7F309F1100808464146E04705
:10434000B0F1FF3F20DD40F20800C2F2000001782A
:10435000204642462B46AFB201F02AFBB08DD6E98B
:104360000D23B7FBF0F031680244181AC6E90D209E
:10437000A1EB0500306004BF032089F8080000208D
:1043800040B201B0BDE8F083D4F8D40204EB800061
:10439000D0F8C00288B148F26101425C48F240079F
:1043A00000EBC2030425DE19DD5511230132B38071
:1043B000D3B2043B18BF13464354FF2040B201B0B0
:1043C000BDE8F0832DE9F0410446D0F8D40204EBB7
:1043D0008003D3F8C002002849D048F2380286187A
:1043E000B76BB58DD3F8C4326F43726BB7F5004F1E
:1043F00028BF4FF40047D3F814C0B7FBF5F300F122
:10440000100808464146E047B0F1FF3F16DDB08D89
:10441000B9B2B1FBF0F13268D6E90D35D21B0B44CD
:10442000691AC6E90D31326026D1204600210024E8
:10443000FFF7AEF860B2BDE8F08100BFD4F8D40257
:1044400004EB8000D0F8C00288B148F26101425C00
:1044500048F2400700EBC2030425DE19DD550323B3
:104460000132B380D3B2043B18BF13464354FF2438
:1044700060B2BDE8F08100BF01FB00F340F209002B
:10448000C2F20000017820464246B3F5004F28BF33
:104490004FF4004301F0B8F9002460B2BDE8F081A8
:1044A000B0B5D0F8D41200EB8100D0F8C0020028DB
:1044B00008BFB0BD48F2610C10F80CE048F24004AF
:1044C00000EBCE010D190A55002169710EF10101B1
:1044D000CAB2043A2B7118BF0A4600F80C20B0BDCE
:1044E00080B5024691E809505062936208694EEA2D
:1044F0000C0318434969D36A084323F0F7010143C9
:104500000020D16280BD0000006800F00300704709
:10451000084440697047000048F61C50C2F2000091
:10452000FEF7B0B810B58446DDE9024011431943E7
:104530002143DDF810E00843DCF8041047F6FF6281
:1045400040EA0E00914301430020CCF8041010BD56
:104550000146032200200A6070470000D0F8800066
:1045600070470000096802460020C2F880107047BA
:104570008160C36840F2774161F30B03372141F258
:104580008832C36000F04CBA41F0004141F4801120
:104590008160C16840F2694262F30B01C16040F280
:1045A0006C01C2F20001096844F6D352C1F2620202
:1045B000A1FB0212510A41F2883251436FF003020B
:1045C000514000BF043104BF4FF000407047426BC0
:1045D00012F0450F02D012F4006214D0426B12F0B8
:1045E000450F02D012F400620DD0426B12F0450F5D
:1045F00002D012F4006206D0426B12F0450FE1D0F7
:1046000012F40062DED1416B042211F0040108BFF4
:10461000C5228263084670478160C3684FF48A618F
:1046200061F30B03102141F28832C36000F0F8B946
:104630008160C36840F2464161F30B03062141F2F9
:104640008832C36000F0ECB900218160C1684FF48A
:10465000806262F30B01C16040F26C01C2F20001A2
:10466000096844F6D352C1F26202A1FB0212510A58
:1046700041F2883251436FF003025140043104BFCC
:104680004FF000407047426B120609D4426B12068D
:104690005CBF426B5FEA026202D4426B1206EDD548
:1046A000C5218163002070474FF4D5718160C168D6
:1046B0004FF4896262F30B01C16040F26C01C2F2F7
:1046C0000001096844F6D352C1F26202A1FB021252
:1046D000510A41F2883251436FF00302514000BF4A
:1046E000043104BF4FF000407047426B12F0450F99
:1046F00002D012F4006214D0426B12F0450F02D0C7
:1047000012F400620DD0426B12F0450F02D012F489
:10471000006206D0426B12F0450FE1D012F4006245
:10472000DED1416B490709D4416BC9070AD1416BFE
:1047300049064FF0000108D5402205E0042204217B
:1047400002E000BF01220121826308467047000099
:104750008160C36840F2524161F30B03122141F2C0
:104760008832C36000F05CB98160C36840F2514197
:1047700061F30B03112141F28832C36000F050B99C
:104780008260C36840F2474161F30B03072141F2A5
:104790008832C36000F044B900218160C16840F2F2
:1047A000C24262F30B01C16040F26C01C2F200012F
:1047B000096844F6D352C1F26202A1FB0212510A07
:1047C00041F2883251436FF003025140043104BF7B
:1047D0004FF000407047426B12F0450F02D012F4C8
:1047E000006214D0426B12F0450F02D012F4006246
:1047F0000DD0426B12F0450F02D012F4006206D0C9
:10480000426B12F0450FE1D012F40062DED1416B31
:10481000490707D4416BC90708D1C521816300202E
:10482000704700BF042181630846704701218163FE
:10483000084670478160C16840F2C94262F30B01CB
:10484000C16040F26C01C2F20001096844F6D35223
:10485000C1F26202A1FB0212510A41F288325143B5
:104860006FF00302514000BF043104BF4FF000401D
:104870007047426B12F0450F02D012F4006214D060
:10488000426B12F0450F02D012F400620DD0426B61
:1048900012F0450F02D012F4006206D0426B12F003
:1048A000450FE1D012F40062DED1416B490707D415
:1048B000416BC90708D1C52181630020704700BF43
:1048C00004218163084670470121816308467047CF
:1048D00000218160C36840F2734161F30B0333210F
:1048E00041F28832C36000F09BB800008160C36869
:1048F00040F24D4161F30B030D2141F28832C36058
:1049000000F08EB800228260C26840F2434363F335
:104910000B02C26040F26C02C2F20002126844F65E
:10492000D353C1F26203A2FB03235A0A41F2883334
:104930005A436FF003035A40043204BF4FF0004063
:104940007047436B13F0450F02D013F4006314D08B
:10495000436B13F0450F02D013F400630DD0436B8B
:1049600013F0450F02D013F4006306D0436B13F02D
:10497000450FE1D013F40063DED1426B52071BD424
:10498000426BD2071CD10269D2B2032A1CBF01209C
:104990007047C5228263406910F4604F14D041040F
:1049A00044BF4FF40050704700044FF4805158BF8B
:1049B0004FF48031084670470421816308467047F0
:1049C0000121816308467047000C08800020704771
:1049D00000218160C36840F24C414EF2001261F345
:1049E0000B03C0F2F5520C21C36000F019B80000AF
:1049F0008160C36840F2594161F30B03192141F210
:104A00008832C36000F00CB88160C3684FF48B61DA
:104A100061F30B03182141F28832C360AFF30080C9
:104A200040F26C03C2F20003D3F800C044F6D35343
:104A3000C1F26203ACFB033C03464FEA5C205043E7
:104A4000002800F09D805A6B12F0450F02D012F43E
:104A500000621DD0012800F093805A6B12F0450FC0
:104A600002D012F4006213D0022800F089805A6B41
:104A700012F0450F02D012F4006209D00438421C33
:104A80007ED05A6B12F0450FDAD012F40062D7D103
:104A9000586B400742BF042098637047586BC007AB
:104AA0001EBF012098637047C52098631869C0B283
:104AB00088421CBF0120704758694EF20801CFF6AA
:104AC000FF51084204BF00207047002844BF4FF048
:104AD00000707047410044BF40207047810044BFD0
:104AE00080207047C10044BF4FF4807070470101BF
:104AF00044BF4FF400707047410144BF4FF48060E1
:104B00007047C10144BF4FF400607047010244BFC9
:104B10004FF480507047410244BF4FF4005070473B
:104B2000810244BF4FF480407047C10244BF4FF43C
:104B300000407047410344BF4FF400307047810389
:104B400044BF4FF480207047C10344BF4FF400209E
:104B50007047010444BF4FF480107047410444BFC4
:104B60004FF400107047810444BF4FF48000704739
:104B700000074FF4000058BF4FF48030704700BF6B
:104B80004FF000407047000010B5846BFBF7EAFC63
:104B9000022808BF10BDD4E90F10426D486D012AEC
:104BA00018BF012826D1206840F2FF52C0F240020F
:104BB000216D8263C26B090422F49D72C263A26BF1
:104BC00042F08042A263FFF791FE58B920680021AD
:104BD000FFF79EFCC0F343200538012805D8206864
:104BE000FFF7F6FEA16B0843A063012084F83400B0
:104BF000002020632046BDE81040FDF755BC0000B2
:104C000010B5846B206B822809D12068FFF7E0FE85
:104C100028B1A16B0843A0632046FDF745FC20683E
:104C2000C16A21F00801C16240F23A51816301205A
:104C3000002184F8340020462163BDE81040FEF7CF
:104C4000FDB80000B0B5846B40F23A52216D206887
:104C500009048263FFF74AFE40B1A16B0843A063D9
:104C6000012084F834000020206313E02068002134
:104C70000025FFF74DFCC0F3432005380121012832
:104C800084F83410256305D82068FFF7A1FEA16BD6
:104C90000843A063A06B28B12046BDE8B040FDF7F3
:104CA00003BC00BF2046BDE8B040FDF767BB000075
:104CB000806B0068C16B41F48071C1637047000074
:104CC000B0B5846B40F23A52216D206809048263CA
:104CD000FFF70CFE40B1A16B0843A063012084F8EC
:104CE00034000020206313E0206800210025FFF736
:104CF0000FFCC0F3432005380121012884F834104B
:104D0000256305D82068FFF763FEA16B0843A06305
:104D1000A06B28B12046BDE8B040FDF7C5BB00BF81
:104D20002046BDE8B040FDF729BB00002DE9F04169
:104D300088B00C460546FBF7EDFE064600212868C4
:104D4000019100910821FFF767FC18B108B0BDE898
:104D5000F08100BF296D28680904FFF709FC0028CD
:104D6000F4D14FF0FF3002900820039030200490DF
:104D7000022005900020069001212868079102A9D1
:104D8000FFF7AEFB2868FFF7A3FD0028DED1002760
:104D9000E8460CE00846FFF7E1FB48F8270001373A
:104DA000FBF7B8FE801B01304FF00040CED02968E1
:104DB000486B10F02A0F05D1486B8002EAD4486B8B
:104DC0008004EDD4486B000712D4486B800711D4DF
:104DD000486B800610D440F23A508863DDE9001039
:104DE00000BA09BAC4E90001002008B0BDE8F081AA
:104DF000082002E0022000E02020886308B0BDE81F
:104E0000F081000010B5FBF707FB40F26804C2F226
:104E1000000408B1207810BD01202070FBF7F0FAE3
:104E200020B120782070207810BD00BF207800F0DD
:104E3000FE00207020782070207810BD10B588B05A
:104E400040F26800C2F200000078C0070ED10329CA
:104E500010D814460020DFE801F00E03111900BF3E
:104E60006846FBF7C5FA069815E000BF032008B0B6
:104E700010BD00BF042008B010BD00BF6846FBF79E
:104E8000B7FA07982080002008B010BD6846FBF7ED
:104E9000AFFA0798400A2060002008B010BD00005B
:104EA0002DE9F041984615460E46FBF733FE0746BE
:104EB00047F22F54FBF72EFEC01BA04209D8FBF788
:104EC0009FFA0028F6D1304629464246FBF7D0FA31
:104ED00010B10120BDE8F08140F29015C2F200054A
:104EE00000202860FBF716FE044647F2305600BF4C
:104EF000286820B9FBF70EFE001BB042F8D32868E3
:104F00000028E6D000202860FBF704FE044647F2A4
:104F10002F5500BFFBF7FEFD001BA842D9D8FBF7B9
:104F20006FFA0028F6D10020BDE8F08110B540F2FC
:104F30006804C2F2000401202070FBF761FA08B196
:104F4000207810BD207800F0FE002070207810BD81
:104F50002DE9F04381B048F21045C2F2000500206F
:104F6000984691460E462860FBF7D4FD074647F267
:104F70002F5400BFFBF7CEFDC01BA04209D8FBF7A2
:104F80003FFA0028F6D1304649464246FBF786FAFA
:104F900020B1012001B0BDE8F08300BFFBF7BAFDEE
:104FA000044647F2305600BF286820B9FBF7B2FD2F
:104FB000001BB042F8D328680028EAD000202860FF
:104FC000FBF7A8FD044647F22F5500BFFBF7A2FDF3
:104FD000001BA842DDD8FBF713FA0028F6D1002009
:104FE00001B0BDE8F08300004FF4803008604FF45A
:104FF000007100201180704700207047002070472A
:105000000020704700207047002070470020704744
:1050100070470000FBF776BEB0B592B0002443F6AF
:105020004000CDE90A44CDE908440594CDE90344A4
:10503000CDE901440094C4F202000168022541F068
:1050400080510160006800F080500090009847F2A5
:1050500000000094C4F20000016841F48041016046
:10506000006800F4804000900098012006904FF402
:10507000803007904FF480000D9004200E90902017
:10508000CDE90F050620119006A80C95FCF7BCFF92
:1050900020B1EFF3108072B6FEE700BF0F20CDE91C
:1050A00001054FF4A05004904FF48050059001A8E2
:1050B00004210394FCF7A8FE20B1EFF3108072B630
:1050C000FEE700BF12B0B0BD4EF68850CEF2000031
:1050D000016841F4700101607047000080B5D0F8AC
:1050E000B82252689047002818BF032080BD0000F6
:1050F000002070470020704780B513460A46002103
:1051000000F082FB002080BD80B513460A460021D6
:1051100000F04EFC002080BD10B58021044600F058
:1051200019FC20460021BDE8104000F013BC00002F
:1051300080B50521C0F8941200210022002300F060
:1051400063FB002080BD000080B513460A460221A3
:10515000C0F894120021C0E9063300F029FC0020B9
:1051600080BD000080B50421C0F894120021002207
:10517000002300F01DFC002080BD000010B540F2AF
:105180009814C2F200040A4602A0214600F04EF92B
:10519000204610BD4D534320436F6E666967000083
:1051A00040F270001222C2F200000A807047000034
:1051B00010B540F29814C2F200040A4602A021463B
:1051C00000F034F9204610BD4D534320496E7465FC
:1051D000726661636500000040F284000422C2F23E
:1051E00000000A807047000010B540F29814C2F227
:1051F00000040A4602A0214600F018F9204610BD1E
:1052000053544D6963726F656C656374726F6E6938
:105210006373000010B540F29814C2F200040A460D
:1052200002A0214600F002F9204610BD53544D3330
:1052300032204D6173732053746F72616765000093
:10524000B0B547F61020C1F6FF70026883684FF0D2
:105250001A0C9B18A1F800C000F0A3804FF0370C87
:105260001A0F0CEB13714068B3F1204F38BF02F1F5
:10527000300140F20C12C2F20002917019014FF09D
:10528000000E0CEB117582F803E0C3F30364B1F177
:10529000204F38BF04F13005190215710CEB117560
:1052A00082F805E0C3F30354B1F1204F38BF04F195
:1052B0003005190395710CEB117582F807E0C3F303
:1052C0000344B1F1204F38BF04F1300519041572C1
:1052D0000CEB117582F809E0C3F30334B1F1204FF0
:1052E00038BF04F13005190595720CEB117582F881
:1052F0000BE0C3F30324B1F1204F38BF04F13005B4
:1053000019061573C3F303140CEB1175B1F1204F9B
:105310004FEA037103F00F0382F80DE038BF04F188
:10532000300503F13704957382F80FE0B1F1204F97
:1053300038BF03F13004010F0CEB1073147482F8C2
:1053400011E0B0F1204F38BF01F1300301010CEB47
:105350001174937482F813E0C0F30363B1F1204F2A
:1053600038BF03F1300401021475C0F303530CEB92
:105370001174B1F1204F4FEA003182F815E038BFC7
:1053800003F130040CEB1173947582F817E0C0F34D
:105390000340B1F1204F38BF00F13003137682F89B
:1053A00019E040F20C10C2F20000B0BD80B5B0F8B8
:1053B00002C003789C4509D8002080BD82788A42CB
:1053C00008BF80BD73449AB262452DD290F800E0C8
:1053D00070444278052A02D182788A4225D07344EB
:1053E0009AB26245E8D290F800E070444278052A0B
:1053F00002D182788A4218D073449AB26245DBD2D5
:1054000090F800E070444278052A02D182788A42FE
:105410000BD073449AB26245CED290F800E070444B
:105420004278052ACAD0CDE7002080BD10B50028FB
:1054300068D00378B3B100F1020E4FF0000C00BF4A
:105440001EF8013C93B19EF800309BB19EF80130EC
:10545000A3B19EF802300CF1040C002B0EF1040EE7
:10546000EED10DE04FF0000C0AE000BF4CF0010C53
:1054700006E000BF4CF0020C02E000BF4CF0030C51
:105480005FFA8CFC022303EB4C03138003220B70A6
:105490004A7090F800E0BEF1000F33D0841C022265
:1054A0004FF0000C1AE000BF101DC0B20B5440F0CA
:1054B000010001F800C06378002B08BF10BD901DEB
:1054C000C0B20B5440F0010001F800C094F802E0B3
:1054D0000832BEF1000F04F1040413D0D3B201F876
:1054E00003E043F0010301F803C014F8013C4BB1A1
:1054F000901CC0B20B5440F0010001F800C02378AA
:10550000002BD1D110BD0000002804BF032070473C
:105510000023C0F8B832C0F8C4320029C0F8D03235
:1055200018BFC0F8B412012180F89C12027000F07C
:10553000E5B8000080B5D0F8C802FBF75FFD40F287
:105540000032C100C0F2013222FA01F1032888BF03
:105550000321C8B280BD000080B5D0F8C802FBF7B7
:1055600025FD40F20032C100C0F2013222FA01F101
:10557000032888BF0321C8B280BD0000B0B504462F
:1055800091B194F89C02032851D1D4F8B802426931
:10559000002A4CD00020C4F8D402204690470028AE
:1055A00008BF0020B0BD00BFD4F89402022837D154
:1055B000D4E9070188420DD9431A204611461A46FC
:1055C000E361FFF7A1FD204600210022002300F047
:1055D0001BF925E010D1A16981420DD3D4F89802BE
:1055E000814209D22046002100220025FFF78CFDD0
:1055F000C4F89852E7E700BF94F89C02032808D14A
:10560000D4F8B802C16821B10020C4F8D402204601
:1056100088472046802100F09DF92046FFF788FD4D
:1056200094F8A00200281CBF002084F8A0020020EB
:10563000B0BD000010B5044681B194F89C02032867
:105640001FD1D4F8B8028269DAB10020C4F8D402BC
:1056500020469047002808BF002010BDD4F89402CF
:1056600003280ED1D4E9570398420DD9C01AC4F8C3
:105670005C01984238BF0346204611461A46FFF7A0
:105680003BFD002010BD00BF94F89C02032808D108
:10569000D4F8B802016921B10020C4F8D402204630
:1056A00088472046FFF75EFD002010BD00207047B0
:1056B00080B5012180F89C12D0F8B81231B14A6847
:1056C00001799047002818BF032080BD002080BDCD
:1056D00080B5D0F8C802FBF7C5FC40F20032C1002B
:1056E000C0F2013222FA01F1032888BF0321C8B2B7
:1056F00080BD0000D0F8C802FBF7D2BC10B501781D
:1057000011B1002010BD00BF48F61001C2F2000127
:10571000C1F80805C0F8C8124FF0A0400422C1E942
:10572000000202200022C1E90302C1E90602084684
:10573000C1E90822C1E90B22FCF712FA002818BFC0
:10574000FAF7D2FE48F61004C2F200042046802187
:10575000FBF794FB204600214022FBF793FB2046F9
:1057600001218022FBF78EFB002010BD4AB2D0F849
:10577000C80201F07F0101EBC10100EB810000F2E2
:105780007E21002A48BF00F13E01087870470000E2
:1057900080B5D0F8D42200EB8202D2F8B8224AB108
:1057A00090F89C32032B02D1126A02B1904700207C
:1057B00080BD00BF032080BD80B5D0F8D42200EBAF
:1057C0008202D2F8B8224AB190F89C32032B02D15F
:1057D000526A02B19047002080BD00BF032080BD07
:1057E00080B59446D0F8C8021A466346FBF762FCBF
:1057F00040F20032C100C0F2013222FA01F1032866
:1058000088BF0321C8B280BD80B5D0F8C802FBF7BD
:1058100085FC40F20032C100C0F2013222FA01F1EF
:10582000032888BF0321C8B280BD0000F0B581B055
:105830000126002580F89C62C0F894520446456019
:10584000D0F8B802C4F8A45284F8A05258B1426803
:1058500042B12046002190470546002818BF032585
:1058600001E000BF00252046002100224023402700
:10587000FFF7B6FF2046802100224023A4F8646190
:10588000C4F86071FFF7ACFFA6842846276201B018
:10589000F0BD000090F89C12042904BF90F89D12FE
:1058A00080F89C120020704780B590F89C12032964
:1058B00006D1D0F8B81219B1C969002918BF8847B4
:1058C000002080BD024600201174704780B5D0F8DA
:1058D000C802FCF743FA40F20032C100C0F20132C4
:1058E00022FA01F1032888BF0321C8B280BD00005D
:1058F000B0B500F2AA250446284600F0E7F90120D9
:10590000C4F8940294F8AA02B4F8B02200F01F017F
:105910000229C4F8982209D001290DD091B9204656
:105920002946BDE8B04000F009BA00BF204629462C
:10593000BDE8B04000F0BCBB20462946BDE8B04001
:1059400000F070BC00F080012046BDE8B04000F0DF
:1059500001B8000080B5D0F8C802FBF705FC40F2A2
:105960000032C100C0F2013222FA01F1032888BFDF
:105970000321C8B280BD000080B5D0F8C802FCF792
:1059800009FA40F20032C100C0F2013222FA01F1FC
:10599000032888BF0321C8B280BD0000014690F8EB
:1059A0009C02042281F89D02002081F89C2270470D
:1059B00080B5D0F8C802FBF715FC40F20032C100F8
:1059C000C0F2013222FA01F1032888BF0321C8B2D4
:1059D00080BD000080B5FDF753FC002080BD0000B5
:1059E00080B5FDF7A1FC002080BD000070B540F23D
:1059F0000806C2F2000671780446FFF7ADFD707824
:105A0000002500F00F0000EB800004EB8000A0F800
:105A1000645131782046FFF79FFDD4F8D4023178E5
:105A200004EB8000D0F8C002002801F00F0000EB6A
:105A3000800004EB8000858410D02046FDF742FDF5
:105A4000D4F8D40204F5307656F8200000F034FC87
:105A5000D4F8D40246F82050C4F8BC52002070BDDF
:105A6000014640F2E0000A22C2F200000A807047BC
:105A700070B540F2C006C2F20006044630468121ED
:105A8000FFF794FC054630460121FFF78FFC002DFF
:105A90001CBF4021A98000281CBF4021818040F20A
:105AA000C0002021C2F20000218070BD70B540F21C
:105AB000C006C2F20006044630468121FFF776FC9C
:105AC000054630460121FFF771FC002D1CBF4FF445
:105AD0000071A98000281CBF4FF40071818040F242
